:020000040800F2
:10000000C80D00207D020008D32F00081B2900081E
:10001000D12F0008B70900083D3800080000000093
:10002000000000000000000000000000C101000806
:100030001D0C00080000000015020008AB3000088D
:10004000970200089702000897020008970200082C
:10005000970200089702000897020008970200081C
:10006000970200089702000897020008970200080C
:10007000710B000897020008970200089702000819
:100080007D0B00089702000897020008C5090008C8
:10009000B9090008970200089702000897020008B3
:1000A00097020008970200089702000897020008CC
:1000B00097020008970200089702000897020008BC
:1000C00097020008970200089702000897020008AC
:1000D000970200080D380008193800082538000874
:1000E000970200089702000897020008970200088C
:1000F000970200089702000897020008970200087C
:10010000970200089702000897020008970200086B
:100110009702000897020008A9310008970200081A
:1001200097020008890B0008950B00089702000849
:10013000970200089702000897020008DD090008EE
:10014000D1090008970200089702000897020008EA
:10015000970200089702000897020008313800084B
:10016000970200089702000897020008970200080B
:10017000970200089702000897020008000000009C
:1001800097020008970200089702000897020008EB
:1001900097020008970200089702000897020008DB
:1001A000000000000000000097020008DFF80CD0FB
:1001B00000F0BEFB004800479D550008C80D002018
:1001C0002B4B19680868B0E8F04F80F30988BFF33B
:1001D0006F8F4FF0000080F311887047000000001F
:1001E00006480068006880F3088862B661B6BFF30D
:1001F0004F8FBFF36F8F00DF00BF00BF08ED00E03F
:10020000DFF80C00016841F470010160704700BF25
:1002100088ED00E0EFF30980BFF36F8F144B1A688D
:100220001EF0100F08BF20ED108A20E9F04F10607B
:1002300008B44FF0500080F31188BFF34F8FBFF325
:100240006F8F05F069FC4FF0000080F3118808BC47
:1002500019680868B0E8F04F1EF0100F08BFB0EC46
:10026000108A80F30988BFF36F8F704700BF00BF0B
:1002700008000020EFF30580704700000648804723
:1002800006480047FEE7FEE7FEE7FEE7FEE7FEE77B
:10029000FEE7FEE7FEE7FEE755310008AD01000886
:1002A00040EA01039B0703D009E008C9121F08C0F8
:1002B000042AFAD203E011F8013B00F8013B521E78
:1002C000F9D27047D2B201E000F8012B491EFBD2EF
:1002D00070470022F6E710B513460A460446194651
:1002E000FFF7F0FF204610BD2DE9FE4F81EA030421
:1002F00004F0004421F0004100944FF0000B23F083
:10030000004350EA01045ED052EA03045BD0C3F319
:100310000A54C1F30A552C44A4F2F3340194A0FB0F
:100320000254C1F3130141F48011C3F3130343F4E6
:10033000801301FB024400FB034E840A970A44EA3F
:10034000815447EA8357A4FB076802958D0A05FB91
:1003500007854FEA932C04FB0C542705029D4FEAB6
:10036000065847EA1637B5EB08056EEB070C870E03
:10037000920E47EA811742EA8312A7FB0201B6EB0D
:100380000B0164EB00042B0D43EA0C335E1844EBC5
:100390001C50DA465146E7FB0201C5F313044FEA4D
:1003A0000B3343EA14534FEA0432019C43EA060339
:1003B000A4F10C040294009CCDE900B400F0EBF829
:1003C00003B0BDE8F08F00200146F9E70EB5C10F7C
:1003D00080EAE0700844CA07002140F233438DE808
:1003E0000E000A460B4600F0D6F803B000BD00F040
:1003F000004230F000400AD0C10D01F56071C0F339
:10040000160042EA0151C20840071143704700201C
:100410000146704730B5041E71F1000404DB4FF053
:100420000044404264EB0101141E73F1000405DB3B
:100430001C464FF00043524263EB0403994208BF4D
:10044000904230BD01F0004330B421F0004150EA49
:10045000010206D00A0DA2F56072C1F31301002A51
:1004600002DC30BC00207047440F44EAC104C100E4
:10047000E01830BC00EBC25000F047B830B50B4676
:10048000014600202022012409E021FA02F59D42C4
:1004900005D303FA02F5491B04FA02F52844151E98
:1004A000A2F10102F1DC30BD2DE9F05F054600202C
:1004B00092469B4688460646814640241BE02846D5
:1004C00041464746224600F054FA53465A46C01A5F
:1004D000914110D311461846224600F03BFA2D1ADE
:1004E00067EB01084F4622460120002100F032FA56
:1004F00017EB00094E41201EA4F10104DFDC484641
:1005000031462A464346BDE8F09F0029A8BF704700
:10051000401C490008BF20F00100704710B4B0FA39
:1005200080FC00FA0CF050EA010404BF10BC7047D4
:1005300049B1CCF1200421FA04F411FA0CF118BFEE
:10054000012121430843A3EB0C01CB1D4FEA0061BD
:100550004FEA102042BF002010BC704700EBC35090
:1005600010440029A4BF10BC7047401C490008BFBC
:1005700020F0010010BC704710B5141E73F1000488
:1005800008DA401C41F1000192185B411A4301D185
:1005900020F0010010BD2DE9F04D92469B4611B1AF
:1005A000B1FA81F202E0B0FA80F22032904600F017
:1005B000D1F904460F4640EA0A0041EA0B015346CE
:1005C0005A46084313D0114653EA010019D0C8F126
:1005D0004002504600F0CDF905460E4650465946B9
:1005E000424600F0B7F9084305D0012004E0204658
:1005F0003946BDE8F08D0020054346EAE0762C43FD
:1006000037430A986305E40AA0EB08000022FD0ABC
:1006100044EA47540A3002D500200146E9E70105C3
:1006200010196941DDE9084500196941BDE8F04D3F
:10063000A2E72DE9FE4F804681EA0300C00F0C4679
:10064000009021F0004123F00045B8EB0200A941E1
:1006500005D24046214690461C460B46024623F0F2
:100660000040104347D0270DC7F30A00C3F30A51D7
:100670000290401A019040286BDAC3F3130040F453
:10068000801B0098924620B10023D2EB030A63EB53
:100690000B0B01985946C0F14002504600F05AF940
:1006A00006460D4650465946019A00F072F910EB85
:1006B00008006141002487EA115284EAE7731A4373
:1006C00040D0009A62B3019A012A4FEA075215DC22
:1006D000001B61EB02014FF0004202EA0752CDE934
:1006E0000042001C41F5801132462B46FFF753FFB4
:1006F00003B0BDE8F08F40462146F9E7001B61EBEF
:100700000201001C41F5801300185B412018A2F57E
:10071000001747EB030140EAD570B6196D4111E0AF
:100720006D084FEA360645EAC0754FEA0752001BCE
:1007300061EB0201001C41F5801149084FEA3000CD
:100740000019514132462B4603B0BDE8F04FFFF788
:1007500013BF0098012240000023D0EB020263EB9C
:10076000E073009821464FEAE074B8EB000061EBBB
:100770000401E9E783F000435BE781F0004158E7BB
:100780002DE9F04D81EA030404F0004B21F000450F
:1007900014464FF0000A23F0004150EA050220D031
:1007A00054EA01021DD0C5F30A570246C5F31303EC
:1007B000C1F31300C1F30A5640F4801543F48013CB
:1007C000A7EB0608101BD64608F2FD3873EB0500B0
:1007D00002D308F1010801E092185B41B8F1000F63
:1007E00003DA00200146BDE8F08D00204FF48011AF
:1007F000064684460EE0171B73EB050705D3121B54
:1008000063EB050306434CEA010C49084FEA30004C
:1008100092185B4150EA0107EDD152EA030012D071
:1008200082EA040083EA0501084305D0101BAB41AE
:1008300006D20122002306E000224FF0004302E02E
:100840006FF0010253101AEB06004CEB085110EB4D
:100850000A0041EB0B01BDE8F04DFFF78DBE2DE91D
:10086000F04D00231A461B1A8A4103DB0020014683
:10087000BDE8F08DC1F30A52C1F3130141F48015B4
:100880004FF0000BD10702D100186D41521E002716
:10089000044640F2FF11384601EB620A3E468046AC
:1008A000024600204FF4801100F063F8C219714134
:1008B000BB1846EB0100B4EB030C75EB000C04D342
:1008C000E41A65EB000517460E46241908F10100ED
:1008D0006D4180463428E3DDF91946EB0600091B1B
:1008E000A84103D24FF0FF32134601E00022134625
:1008F0001BEB070046EB0A51BDE8F04DFFF73CBE8D
:10090000C1F30A52C1F3130140F2FF3341F48011E5
:100910009A4202DA00200146704740F233439A427D
:10092000A2F2334202DC524200F023B800F012B8C7
:10093000064C074D06E0E06840F0010394E807002C
:1009400098471034AC42F6D3FFF734FCA85D00089A
:10095000C85D0008202A04DB203A00FA02F10020DA
:1009600070479140C2F1200320FA03F319439040ED
:100970007047202A04DB203A21FA02F00021704758
:1009800021FA02F3D040C2F12002914008431946F7
:100990007047202A06DBCB17203A41FA02F043EADF
:1009A000E07306E041FA02F3D040C2F12002914028
:1009B000084319467047FEE7014800F033B90000CC
:1009C00084070020014800F02DB9000084070020B2
:1009D000014800F027B90000C4070020014800F0DA
:1009E00021B90000C407002010B54FF4D872036885
:1009F00002EB01129B5813F00404436B9C600468E3
:100A0000436BA45854D0E4085C6003689A58436B65
:100A100002F00202DA604FF4DA72036802EB0112AC
:100A20009B58446B03F00F03236103689A58436B90
:100A3000C2F30722DA614FF4DC72036802EB0112A1
:100A40009B58446B237503689B58446B1B0A637562
:100A500003689B58446B1B0CA37503689A58436B3F
:100A6000120EDA754FF4DE72036802EB01129B5826
:100A7000446B237603689B58446B1B0A63760368B8
:100A80009B58446B1B0CA37603689A58436B120E59
:100A9000DA762022002901680DD00A6101684A69CE
:100AA00022F010024A6190F83810222909D021E082
:100AB000640D1C60A9E7CA6001684A6922F002025D
:100AC000F0E701684A6922F480724A6101684A6964
:100AD00022F400724A6101684A6922F480624A6124
:100AE00001684A6922F400624A6101684A6922F495
:100AF00000424A6190F83810322907D05FF00101B6
:100B000080F8381000F062FA002010BD1221F7E7DB
:100B100010B501684A6922F001024A6190F8381064
:100B2000122918D101684A6922F480724A61016869
:100B30004A6922F400724A6101684A6922F48062BB
:100B40004A6101684A6922F400624A6101684A699F
:100B500022F400424A6190F83810322906D001216F
:100B600080F8381000F082FA002010BD2221F7E74B
:100B7000014800F08FBA0000F0050020014800F0A5
:100B800089BA000090050020014800F083BA0000F7
:100B900050060020014800F07DBA0000300500201A
:100BA00001681823CAB2103AB2FBF3F2054B6FF397
:100BB0000901032A9B5CC36500D9091D81650846AC
:100BC00070470000885C000810B5014600208B6962
:100BD0008A6A4FF0C07453B1B3F5005F15D072B19B
:100BE000012A0CD0022A0AD0032A09D104E01AB142
:100BF000012A06D0022A03D1C96AC90100D5012001
:100C000010BDC96AA142FAD010BD002AF7D0012A4E
:100C1000F2D0022AF3D0032AF3D010BD7047FEE7CA
:100C20007047000010B5044600684169C943C90710
:100C300014D182685849914368D000218368574A8B
:100C40009A4365D0002283685548984362D00020BB
:100C50001143014302D02046FFF75AFF2068C168C4
:100C6000406911F0030FC0F3400004D018B1002117
:100C70002046FFF7B9FE21680869496910F0030FA3
:100C8000C1F3001104D019B101212046FFF7ACFED9
:100C900020688169426911F0010FC2F300234269A3
:100CA000C2F3C03205D023B11AB1E16B41F00101AA
:100CB000E1638169C1F3400341694269C1F34021A5
:100CC000C2F3C0322BB121B11AB1E16B41F0020184
:100CD000E16381694269C1F38001C2F38023426903
:100CE000C2F3C03229B123B11AB1E16B41F0040162
:100CF000E163816911F0700F0ED0002142694369F0
:100D0000C2F3C022C3F3C03341B127E0012195E70C
:100D1000012298E701209BE70121EFE7F2B1EBB157
:100D2000816901F07001402929D006DC102909D021
:100D300020290BD030290DD11DE0502923D0602966
:100D400008D124E0E16B41F0080102E0E16B41F0E1
:100D50001001E163816921F070018161E06B00287D
:100D600008D0216804204860012084F8380020461B
:100D7000FFF756FF10BDE16B41F02001E9E7E16BA1
:100D800041F04001E5E7E16B41F08001E1E7E16B13
:100D900041F48071DDE70000030000040003000857
:100DA000000003102DE9F041040004D094F838004D
:100DB000002518B107E00120BDE8F08184F8395022
:100DC000204600F093F8022084F83800206801687B
:100DD00021F0020101602068016841F00101016019
:100DE00000F08CFB0746032605E000BF00F086FB01
:100DF000C01B0A2863D820684068C007F6D0206866
:100E00004168C90768D0A169012901683FD021F074
:100E100080010160E0690128206801683AD021F072
:100E200040010160206A01282068016835D021F066
:100E300020010160606A01282068016830D021F03B
:100E400010010160A06A0128206801682BD021F000
:100E500008010160E06A01282068016826D021F0BD
:100E600004010160D4E902010843D4E904121143EA
:100E700008436168491E08432168C8612068016809
:100E800021F00101016000F039FB07461CE041F050
:100E90008001BEE741F04001C3E741F02001C8E70F
:100EA00041F01001CDE741F00801D2E741F0040123
:100EB000D7E700BF00F022FBC01B0A2804D904F8C2
:100EC000386F0320657077E720684068C007F1D16C
:100ED00020684068C00703D0042084F838006AE71F
:100EE000E563012084F83800002065E7F0B5324B57
:100EF0000768DFF8C0C018680322022409252F49BB
:100F00000026401C87B0674521D11860012807D111
:100F1000086840F000700860086800F000700590F4
:100F20008DE85400CDE903256946254800F0FAF91B
:100F300000220521132000F07BFB132000F06CFB46
:100F400000220521142000F073FB14202EE0DFF8AE
:100F500074C067452CD10F6847F080670F600F6839
:100F6000012807F080670597186007D1086840F0EE
:100F700000700860086800F0007005904FF4405061
:100F80008DE85100CDE9032569460F4800F0CAF904
:100F9000002211463F2000F04BFB3F2000F03CFBBD
:100FA00000221146402000F043FB402000F034FBBB
:100FB00007B0F0BD0064004040000020403802400F
:100FC000000C0240006800400004024070B5054675
:100FD000406B214E214C0068A0F50070013806D00E
:100FE000012812D0022810D0032828D10DE00020BB
:100FF0003070A16A20464A1C3229A262294602D8D2
:1010000003F0F8FD01E003F0CBFD686B0078401EB3
:10101000C0B2707000EB400101EBC00004EB800037
:10102000816A4A1C32298262294602D803F0E2FD15
:1010300001E003F0B5FD2946094803F0B1FD094878
:101040000068416941F00201416107480068416957
:1010500041F00201416170BDA40000206808002039
:101060009809002084070020C4070020704790F8EA
:101070003510022903D080214165012070470521E8
:1010800080F835100068016821F00101016000203E
:10109000704700002DE9F84304464FF00008CDF8F2
:1010A000008064484FF41651A56D0068B0FBF1F75D
:1010B0002E6894F85C10082000FA01F131420FD03C
:1010C00021680A6852070BD50A6822F004020A60F8
:1010D00094F85C108840A860606D40F00100606585
:1010E00094F85C1054488840304208D0216849691F
:1010F000090604D5A860606D40F0020060654E48A6
:1011000094F85C10C01C8840304208D021680968FF
:10111000890704D5A860606D40F00400606594F80C
:101120005C1010208840304218D0216809680907F7
:1011300014D5A86020680168490304D5006800033D
:1011400008D5A16C07E00168C90503D4016821F046
:1011500008010160216C09B12046884794F85C10B1
:101160002020884030424FF0010631D021680968C4
:10117000C9062DD5A86094F83500052820680168B7
:1011800006D0490347D5006800031DD4616C1CE0FC
:1011900021F0160101602068416921F08001416160
:1011A000206C08B9A06C20B12068016821F008010A
:1011B000016094F85C103F208840A86084F8348077
:1011C00084F83560216D1FE0E16B09B12046884746
:1011D000606D00282BD0606DC00714D0052084F806
:1011E00035002068016821F0010101600098401C71
:1011F0000090B84203D820680068C007F6D184F890
:10120000348084F83560E16C002910D001B02046AC
:10121000BDE8F04308470168C905D5D4016821F04D
:101220001001016084F8348084F83560CCE7BDE8B3
:10123000F883000004000020010080002DE9F04147
:10124000044600F05BF906465CB1002584F8345092
:10125000022084F835002068016821F00101016056
:101260000DE00120BDE8F08100F048F9801B052861
:1012700005D920206065032084F83500F2E7206856
:101280000068C007F0D1226811681F480140D4E906
:1012900001031843D4E90336334318436369184301
:1012A000A3691843E3691843236A18430843616A32
:1012B000042903D1D4E90B131943084310602068B3
:1012C0004069666A20F0070130460E430127042872
:1012D0000AD1A06A06432046FFF776FC20B14020E1
:1012E000606584F83570BCE7206846612046FFF7EA
:1012F00057FC94F85C203F2191408160656584F83B
:1013000035700020AEE700003F8010F031B500F0EE
:10131000F5F8044600F0F2F80099001B8842F9D372
:1013200038BD00002DE9F84FDFF890B100224FF0F2
:1013300001084FF0030A4FF00F090BF1040E00BF34
:101340000B6808FA02F42340A3426ED14D68022DC7
:1013500001D0122D0ED1D50800EB850CDCF8205001
:101360005607F70E09FA07F6B5430E69BE402E433D
:10137000CCF82060066855000F790AFA05FC07F0E2
:10138000030726EA0C06AF40374307604E68012E7C
:1013900005D0022E03D0112E01D0122E0ED1876857
:1013A000CE6827EA0C07AE403E4386604668A643F7
:1013B0000C79C4F30014944034434460C4688E68CC
:1013C00024EA0C04AE402643C6604C68E4006FD5A6
:1013D0003B4C256845F480452560246822F00305D0
:1013E00004F480440094374C2E19D6F80848950729
:1013F0002F0F09FA07F5AC43334DA84201D1002560
:101400002EE0324DA84201D1012529E0304DA842FD
:1014100001D1022524E02F4DA84201D103251FE070
:101420002D4DA84202D104251AE041E02B4DA842DF
:1014300001D1052514E02A4DA84201D106250FE06F
:10144000284DA84201D107250AE0274DA84201D125
:10145000082505E0254DA84201D1092500E00A250F
:10146000BD402543C6F80858DBF800405D464E688D
:101470009C43F60300D51C432C60DEF80040754603
:101480004E689C43B60300D51C432C600B4D0835B9
:101490002C684E689C43F60200D51C432C60074D17
:1014A0000C352C684E689C43B60200D51C432C605A
:1014B000521C102AFFF444AFBDE8F88F003C0140F5
:1014C0004438024000300140000002400004024065
:1014D00000080240000C02400010024000140240CC
:1014E00000180240001C024000200240002402407C
:1014F0000AB1816170470904FBE7000001480068F8
:10150000704700000000002002480168491C01608B
:1015100070470000000000200B4810B5016841F43E
:1015200000710160016841F480610160016841F46B
:1015300080710160032000F09BF8002000F006F8A5
:1015400000F03EF8002010BD003C024010B50146FE
:1015500088B00022362000F06BF8362000F05CF8EE
:1015600013480024016841F010010160006805A9DA
:1015700000F010000690684600F090F900F0B4F911
:101580000C494000B0FBF1F10C480B4A491E0260C7
:1015900040F2E732C0E90324C0E9011400F03DFD48
:1015A00010B1012008B010BD044800F052FDF9E769
:1015B0004038024040420F0000100040F00600207A
:1015C00010B5032000F054F8002211466FF00B0014
:1015D00000F02EF8002211466FF00A0000F028F803
:1015E000002211466FF0090000F022F80022114697
:1015F000501F00F01DF800221146101F00F018F8CF
:1016000000220F21901E00F013F800220F21BDE8E8
:101610001040501E00F00CB800F01F020121914054
:101620004009800000F1E020C0F800117047000080
:10163000F0B40E4B1B680C46C3F30223C3F107053D
:10164000042D00D90425191D072901D2002300E02B
:10165000DB1E012606FA05F1491E214099409E40F5
:10166000761E16403143F0BC01F0B4BC0CED00E036
:10167000064900F0070208684FF6FF03184040EAE9
:101680000220034A10430860704700000CED00E0A0
:101690000000FA052DE9F8431E48016841F0805129
:1016A00001600068012600F080500090300490FA3C
:1016B000A0F0194FB0FA80F047F82060FFF71EFF46
:1016C00005464FF47A78154C05E000BFFFF716FF8A
:1016D000401B404515D86068C003F7D54FF4003073
:1016E00090FAA0F0B0FA80F047F82060FFF706FF0C
:1016F0000546464608E000BFFFF700FF401BB0422A
:1017000002D90320BDE8F88360688003F4D5002087
:10171000F8E700004038024000000E420070004030
:101720002DE9F047DFF8649105460F46D9F800002F
:1017300000F00F01F8B28046B94208D2014689F89C
:101740000010D9F8000000F00F00B84274D12878DA
:101750004F4C800705D52068A96820F0F0000843A9
:1017600020602878C00759D049496868083901289D
:101770001AD002281BD0032819D00968890700292C
:101780005ADA216821F0030101432160FFF7B6FE18
:101790006968064641F28830012911D002291DD01E
:1017A0000329824627D035E009688903E7E70968FD
:1017B0008901E4E7FFF7A2FE811B514501D926E02C
:1017C00082462068C0F381000128F3D126E000BFE3
:1017D000FFF794FE811B514501D918E0824620682D
:1017E000C0F381000228F3D118E000BFFFF786FEA6
:1017F000811B51450BD82068C0F381000328F5D127
:101800000CE000BFFFF77AFE811B514502D903208F
:10181000BDE8F087206810F00C0FF3D1D9F8001064
:10182000484601F00F01B94208D980F800800068ED
:1018300000F00F00B84201D00120E9E72878400706
:1018400005D52068E96820F4E05008432060287836
:10185000000706D52068296920F4604040EAC100ED
:10186000206000F071F82168F02292FAA2F201F0F3
:10187000F001B2FA82F2D140064A515CC8400649F2
:1018800008600020FFF762FE0020C1E7003C024034
:1018900008380240905C0008040000200F2202601B
:1018A0000C4A136803F003034360136803F0F0036A
:1018B0008360136803F4E053C36012684FF4E0538D
:1018C00003EAD20202610448006800F00F000860D9
:1018D0007047000008380240003C024001480068A0
:1018E00070470000040000200848094900680968A2
:1018F0004FF4E05292FAA2F201F4E051B2FA82F20D
:10190000D140044A515CC8407047000004000020E8
:1019100008380240905C00080848094900680968D6
:101920004FF4604292FAA2F201F46041B2FA82F2FC
:10193000D140044A515CC8407047000004000020B8
:1019400008380240905C000830B51948006810F073
:101950000C01184812D0184C04290ED008290DD1BA
:101960001349091F0A6802F03F030A68550247F647
:10197000C07204D5B4FBF3F003E0204630BDB0FBE9
:10198000F3F00B680968134092FAA2F2B2FA82F2FD
:10199000D34058434FF4403292FAA2F201F440315E
:1019A000B2FA82F2D140491C4900B0FBF1F030BDDF
:1019B000083802400024F400001BB7002DE9F84F5E
:1019C0000446DFF8CC820078A8F1040BC007ABF125
:1019D000040537D0D8F800104046C1F38101012931
:1019E00008D00068C0F3810002280AD1DBF80000AB
:1019F000400206D52868800324D56068002878D086
:101A000020E0A3492079891F0870606868B1FFF75A
:101A100075FD064605E000BFFFF770FD801B6428DA
:101A200068D828688003F7D50CE0FFF767FD064605
:101A300005E000BFFFF762FD801B6428F0D828682E
:101A40008003F7D42078934E80074FF0010A4FF0BF
:101A5000000742D5D8F80010404611F00C0F08D00E
:101A60000068C0F3810002280AD1DBF800004002C0
:101A700006D42868800714D5E068012839D110E021
:101A8000E068D8B1C6F800A0FFF738FD814605E050
:101A9000FFF734FDA0EB09000228C1D828688007B1
:101AA000F6D52868F82292FAA2F22169B2FA82F2F7
:101AB00020F0F8009140084328600EE03760FFF7FF
:101AC0001DFD814606E000BFFFF718FDA0EB0900F1
:101AD00002280FD828688007F6D42078000728D578
:101AE0006D486169A1B1C0F800A0FFF707FD81460C
:101AF00008E0CAE079E000BFFFF700FDA0EB0900B5
:101B0000022872D862486C3000688007F4D510E073
:101B10000760FFF7F3FC814606E000BFFFF7EEFC2D
:101B2000A0EB0900022860D859486C300068800793
:101B3000F4D42078400749D555483830016841F041
:101B400080510160006800F08050009053480168A7
:101B500041F480710160FFF7D1FC814606E000BFCF
:101B6000FFF7CCFCA0EB090002283ED84B480068E8
:101B7000C005F5D5DFF81891207A09F1680989F8D0
:101B80000000A06888B1FFF7B9FC009008E000BF32
:101B9000FFF7B4FC0099411A41F2883081426CD8B9
:101BA000D9F800008007F3D510E0FFF7A7FC0090FC
:101BB00008E000BFFFF7A2FC0099411A41F288300B
:101BC00081425AD8D9F800008007F3D4A069E0B365
:101BD000D8F80010C1F38101022956D002283766D7
:101BE00004D0FFF78BFC04464AE046E0FFF786FC92
:101BF000074604E0FFF782FCC01B02283DD8286896
:101C00008001F7D4D4E90701084347F6C07292FA7D
:101C1000A2F2616AB2FA82F29140A26A4FF0FF33F7
:101C200003EB52024FF4403393FAA3F3B3FA83F376
:101C30009A40114308434FF0706292FAA2F2E16AAF
:101C4000B2FA82F29140084300E01CE0CBF80000B9
:101C5000C6F860A0FFF752FC044604E0FFF74EFC14
:101C6000001B022809D828688001F7D50BE000BFC7
:101C7000FFF744FC001B022802D90320BDE8F88FBF
:101C800028688001F4D40020F8E70120F6E700007E
:101C90000838024000004742800E47420070004072
:101CA00070B5040005D00025A56294F8510010B16C
:101CB00006E0012070BD84F85050204600F030F856
:101CC000022084F851002068016821F04001016081
:101CD000D4E901010843D4E90312114308436169BF
:101CE0000843218B01F400710843E1690843216A2C
:101CF0000843A16A084321680860A069042101EA39
:101D00001040616A0843216848602068C16921F475
:101D10000061C1616565012084F85100002070BD3B
:101D200000B500680E4987B0884217D10D480021E0
:101D3000026842F480120260006800F4801005908E
:101D40004FF4607000900220CDE901010320039060
:101D50000520049069460448FFF7E4FA07B000BD87
:101D60000050014044380240001402402DE9F84F71
:101D7000044690F8500000260A9F9A4693460D4666
:101D80004FF0010801280ED0012084F85000FFF721
:101D9000B5FB814694F85100616801280CD0B1F57B
:101DA000827F07D102E00220BDE8F88FA16809B95F
:101DB000042801D00226BDE055B1BBF1000F07D0C9
:101DC000BAF1000F04D094F85100012802D004E0C9
:101DD0000126AFE0052084F8510000206065C4F8BA
:101DE00038B0A4F83EA0A4F83CA02563A4F836A01F
:101DF000A4F834A02064606420680168490603D414
:101E0000016841F040010160E068B0F5006F606872
:101E100004D0E8B3E08E01283BD06AE010B1E08E38
:101E200001282ED1216835F8020BC860E08E401ED3
:101E3000E08626E0B8F1000F0DD0E08E58B12068A2
:101E40008168890707D535F8021BC160E08E401E06
:101E5000E0864FF00008E08F58B120688168C9071C
:101E600007D0C0682BF8020BE08F401EE0874FF0D0
:101E70000108781C05D0FFF741FBA0EB0900B84230
:101E800046D2E08E0028D5D1E08F0028D2D136E0AE
:101E9000FFE7216815F8010B0873E08E401EE0860D
:101EA00027E000BFB8F1000F0DD0E08E58B12068D8
:101EB0008168890707D515F8011B0173E08E401E64
:101EC000E0864FF00008E08F58B120688168C907AC
:101ED00007D0C0680BF8010BE08F401EE0874FF081
:101EE0000108781C05D0FFF709FBA0EB0900B842F8
:101EF0000ED2E08E0028D5D1E08F0028D2D13B460B
:101F0000012202212046CDF8009001F083F808B1AB
:101F100003260FE04A463946204601F06BF818B117
:101F200001262020606505E0A06818B92068C16816
:101F300080680090012084F85100002084F850004F
:101F4000304631E74FF0E0210428086903D020F043
:101F500004000861704740F00400FAE710B5401E25
:101F6000B0F1807F01D3012010BD4FF0E02460610B
:101F70000F21601701F02EF80020A06107202061DA
:101F8000002010BD7047704730B590F83820012A06
:101F900019D0012200F8382F02234370D1E9003410
:101FA0002343D1E902452C4323430C6923434C6965
:101FB000896923430B4350F8381C4B64427000215D
:101FC0000170084630BD022030BD30B590F8382091
:101FD000012A20D0012280F83820022380F83930ED
:101FE00003685C6824F070045C6003685C680D68DA
:101FF0002C435C6003689C6824F080049C60036848
:102000009C6849680C439C6080F83920002180F866
:102010003810084630BD022030BD10B5040003D092
:1020200094F8390010B107E0012010BD002084F8B9
:102030003800204600F00CF8022084F83900211DF9
:10204000206801F0B7F8012084F83900002010BDA5
:1020500070470168CA6842F00102CA6000680168FE
:1020600041F00101016000207047704770B50446DF
:10207000006801694FF00005C943890715D4C1689C
:10208000C943890711D4E91E016101202076206827
:1020900080698007204602D0FFF7E7FF04E000F0E8
:1020A0001DF9204600F0ECF9257620680169C94346
:1020B000490717D4C168C943490713D46FF0040115
:1020C0000161022020762068806910F4407F20465C
:1020D00002D0FFF7CAFF04E000F000F9204600F04C
:1020E000CFF9257620680169C943090716D4C1686C
:1020F000C943090712D46FF008010161042020765A
:102100002068C0698007204602D0FFF7AEFF04E0D8
:1021100000F0E4F8204600F0B3F925762068016964
:10212000C943C90617D4C168C943C90613D46FF09F
:1021300010010161082020762068C06910F4407FFA
:10214000204602D0FFF791FF04E000F0C7F82046D8
:1021500000F096F9257620680169C943C90708D1BE
:10216000C168C943C90704D1891E0161204600F036
:1021700089F920680169C943090609D4C168C943BE
:10218000090605D46FF0800101612046FFF7FAFED1
:1021900020680169C943490609D4C168C943490691
:1021A00005D46FF040010161204600F075F9206808
:1021B0000169C94389060BD4C168C943890607D49C
:1021C0006FF0200101612046BDE87040FFF7DBBEE3
:1021D00070BD0000F0B501680024022501263548D5
:1021E00085B0B1F1804F08D0334A91421CD13021E3
:1021F0000091CDE9015469463FE040F60841009165
:10220000CDE90154CDE903466946FFF78BF84FF459
:1022100000400090CDE90154CDE9034669462748C6
:10222000FFF780F805B0F0BD254A914211D14FF477
:1022300040710091CDE901546946CDE90345FFF7AE
:1022400071F84FF440500090CDE9015469461D48A3
:1022500013E01D4A1D481E4F914211D10096CDE951
:1022600001546946CDE90345FFF75CF84FF4E050AF
:102270000090CDE9015469463846CDE90345CFE7E2
:10228000144A914208D1E4210091CDE9015403217F
:10229000CDE903416946C3E70F488142C2D14FF4FB
:1022A00010700090CDE901540920CDE90340694642
:1022B0003846B5E700040240000400400000024038
:1022C00000080040000C0240000C004000200240CA
:1022D000001C02400004014000180040704770B527
:1022E000044690F838000D4601280DD0012684F8E8
:1022F0003860022084F8390042B1042A18D0082A34
:102300002AD00C2A4DD139E0022070BD206800F09F
:10231000B1FF2068816941F008018161206881690D
:1023200021F004018161206881692A69114311E06B
:10233000206800F0CBFF2068816941F40061816171
:102340002068816921F480618161206881692A693E
:1023500041EA0221816124E0206800F0E9FF206861
:10236000C16941F00801C1612068C16921F004011F
:10237000C1612068C1692A69114311E0206801F038
:1023800007F82068C16941F40061C1612068C16932
:1023900021F48061C1612068C1692A6941EA022192
:1023A000C16184F83960002084F8380070BD10B530
:1023B000040003D094F8390010B107E0012010BDEB
:1023C000002084F83800204600F00CF8022084F841
:1023D0003900211D206800F0EDFE012084F839004D
:1023E000002010BD08B501681F48B1F1804F0BD027
:1023F0001E4A914210D1016841F00201016000685B
:1024000000F00200009008BD016841F00101016088
:10241000006800F00100F5E7154A914207D1016814
:1024200041F004010160006800F00400EAE7114A8D
:10243000914207D1016841F008010160006800F095
:102440000800DFE70C4A914202D10748001DD2E79D
:102450000A4A9142D7D1016841F040010160006809
:1024600000F04000CEE70000403802400004004089
:1024700000080040000C004000040140001800402B
:102480007047000000680349884201D1FFF73CB85B
:1024900070470000001000407047704770B5026838
:1024A00004461068D168536910F00F0F51D003F043
:1024B000010501F4907635435DD0C20705D0CA0509
:1024C00003D5E26B42F00102E263420705D5DA0769
:1024D00003D0E26B42F00202E263820705D5DA071D
:1024E00003D0E26B42F00402E263020705D5DA078B
:1024F00003D0E26B42F00802E263E26B002A34D0C0
:10250000800604D5880602D5204600F07FFF2068AB
:102510004069E16BC0F3801001F0080101432046DF
:1025200024D000F065FF2068416949061AD5416949
:1025300021F040014161606BA0B11B490165606BF6
:10254000FEF795FD002810D0606B016DBDE870406E
:10255000084783060FD58B060DD52046BDE8704091
:1025600000F054BF2046FFF798FF70BDFFF795FFBE
:102570000020E06370BD030606D50B0604D5204697
:10258000BDE8704001F0DEB84006F3D54806F1D54D
:10259000D168204621F04001D160202184F8391013
:1025A00000F0BAF970BD0000E133000870B5040016
:1025B00004D094F83900002510B106E0012070BD68
:1025C00084F83850204600F023F8242084F839009D
:1025D0002068C16821F40051C160204600F05CFF12
:1025E0002068016921F4904101612068416921F06E
:1025F0002A0141612068C16841F40051C160E5636E
:10260000202084F8390084F83A00002070BD0000D2
:102610002DE9F04F87B0054614216846FDF759FEB5
:102620008048D5F800C00024DFF8FCA10221012277
:102630000323072706154FF0006984452CD1DAF8EB
:1026400000C04CF0100CCAF800C0DAF8000000F02E
:1026500010000590C0208DE88F0069467348FEF792
:1026600061FE744F72483860C7E90194C7E90346B8
:102670007C61BC61FC613C6238467C62FEF7DEFD39
:1026800008B1FEF7CCFA6F63002205212520BD6357
:10269000FEF7CEFF252033E06348DFF89C81001F62
:1026A000DFF898B1C44530D1D0F800C04CF4003CFC
:1026B000C0F800C0006800F40030059060208DE88C
:1026C0008F0069465846FEF72DFE5A4F5C4860372A
:1026D0003860C7E90194C7E903467C61BC61FC61CD
:1026E0003C6238467C62FEF7A9FD08B1FEF797FA16
:1026F0006F63002211462620BD63FEF799FF262056
:10270000FEF78AFF07B0BDE8F08FDFF83881C445D7
:102710002ED1D0F800C04CF4802CC0F800C0006866
:1027200000F4802005904FF440708DE88F006946DA
:102730005846FEF7F7FD3F4F4148C03760383860D4
:10274000C7E90194C7E903467C61BC61FC613C6256
:1027500038467C62FEF772FD08B1FEF760FA6F63DF
:10276000002211462720BD63FEF762FF2720C7E73E
:10277000DFF8D4800827C4452FD1DAF800C04CF028
:10278000200CCAF800C0DAF8000000F02000059024
:102790004FF484408DE88F0069462C48FEF7C2FD57
:1027A00023482B4F183838608005C7E90104C7E972
:1027B00003467C61BC61FC613C6238467C62FEF78A
:1027C0003DFD08B1FEF72BFA6F630022052147207B
:1027D000BD63FEF72DFF472092E71E4CA44591D123
:1027E000046844F080440460006800F08040059074
:1027F0000D481438046844F010040460006800F0C8
:10280000100005904FF4C0708DE88F0069461248A3
:10281000FEF788FD002211465220FEF709FF5220E4
:102820006EE70000001001404438024000040240FE
:10283000406402403005002000440040000C02408B
:102840008860024000480040001401400018024027
:1028500050060020007800400010024070472DE92B
:10286000F843044690F839001E4617460D462028C6
:1028700050D135B32FB394F8380001284AD0012045
:1028800084F838004FF00008C4F83C80212084F818
:102890003900FEF733FEA784E78481464FF4805762
:1028A000E08C4B46401EE084A0684FF00002B84226
:1028B0004FF080012046009611D100F074FF00BB5C
:1028C00002E00120BDE8F8832888C0F308012068F1
:1028D0004160206908B16D1C08E0AD1C06E000F005
:1028E00062FF70B9216815F8010B4860E08C002880
:1028F000D6D14B46002240212046009600F053FFDF
:1029000008B10320DEE7202084F8390084F83880FD
:102910000020D7E70220D5E77047FEE70F4810B543
:102920000D4901600521416000214FF400328160B2
:10293000C0E903125201C0E905210122C0E90721C3
:1029400041628162C162FEF72DFA002803D0BDE822
:102950001040FEF764B910BD0064004084070020F9
:10296000104810B50E4901600521416000214FF06B
:102970004072C0E902124FF4003202615201C0E914
:1029800005210122C0E9072141628162C162FEF78F
:1029900009FA002803D0BDE81040FEF740B910BD89
:1029A00000680040C4070020194808B5016841F4D8
:1029B00080010160016801F480010091016841F427
:1029C000001101600068002200F400100090052151
:1029D0000C20FEF72DFE0C20FEF71EFE0022052126
:1029E0001020FEF725FE1020FEF716FE002205211E
:1029F0003920FEF71DFE3920FEF70EFE00220521CC
:102A00003A20FEF715FEBDE808403A20FEF704BE66
:102A1000303802402DE9F0474B4886B00024016869
:102A200041F010010160016801F010010591016899
:102A300041F002010160016801F0020105910168A5
:102A400041F040010160016801F040010591016819
:102A500041F008010160016801F008010591016879
:102A600041F001010160016801F001010591016877
:102A700041F480710160016801F480710591016881
:102A800041F080010160016801F080010591016859
:102A900041F0200101600068DFF8B08000F0200004
:102AA0000590002288214046FEF722FD01220421E4
:102AB0004046FEF71DFDDFF898904FF400560022C7
:102AC00031464846FEF714FDDFF888A044F240077F
:102AD000002239465046FEF70BFD8C200090012560
:102AE000CDE90154694640460394FEF71BFC0220E1
:102AF00000901948CDE9010569464046FEF712FCF1
:102B00000096CDE90154694648460394FEF70AFC55
:102B10008420CDE90004694610480294FEF702FCC7
:102B20000097CDE90154694650460394FEF7FAFB3D
:102B30000D2000900A48CDE9010469460948FEF7D6
:102B4000F1FB06B0BDE8F0873038024000100240CB
:102B5000001802400014024000002110000C024046
:102B60000000111000000240104810B50E4901602D
:102B70004FF48271416000218160C1604FF40072A6
:102B80000161C0E905123022C0E90721416281627A
:102B90000A21C162FFF784F8002803D0BDE8104085
:102BA000FEF73DB810BD0000005001402C0700208A
:102BB00010B5174888B01549016059210024C0E9B3
:102BC000011440F6C311C0E90314FFF7F0FB08B18C
:102BD000FEF725F8602000904FF47A70CDE90104EB
:102BE000002269460A480494FFF779FB08B1FEF712
:102BF00016F8042269460648FFF771FB08B1FEF794
:102C00000EF80348FFF7E6FA08B010BD00180040C0
:102C1000F403002010B521488AB04FF08041002411
:102C2000C0E900148460C4600461FFF7C0FB08B110
:102C3000FDF7F5FF079407A918480894FFF7C5F9B1
:102C400008B1FDF7ECFF6020CDE9000402940022FA
:102C5000694612480494FFF742FB08B1FDF7DFFF15
:102C6000042269460D48FFF73AFB08B1FDF7D7FF8C
:102C7000082269460948FFF732FB08B1FDF7CFFF8C
:102C80000C2269460548FFF72AFB08B1FDF7C7FF8C
:102C90000248FFF79FFA0AB010BD0000C8020020EA
:102CA00010B51A488AB018490160B3210024C0E960
:102CB0000114C4600461FFF77AFB08B1FDF7AFFFB0
:102CC000079407A911480894FFF77FF908B1FDF7A9
:102CD000A6FF6020CDE900040294002269460B485B
:102CE0000494FFF7FCFA08B1FDF799FF0422694646
:102CF0000648FFF7F4FA08B1FDF791FF0348FFF724
:102D000069FA0AB010BD000000040040040300206E
:102D100010B521488AB01F490024C0E9001484601E
:102D2000C4600461FFF743FB08B1FDF778FF079427
:102D300007A919480894FFF748F908B1FDF76FFF94
:102D40006020CDE9000402940022694612480494F0
:102D5000FFF7C5FA08B1FDF762FF042269460E4885
:102D6000FFF7BDFA08B1FDF75AFF082269460A4885
:102D7000FFF7B5FA08B1FDF752FF0C226946064885
:102D8000FFF7ADFA08B1FDF74AFF0348FFF722FA53
:102D90000AB010BD000800404003002010B52448D0
:102DA0008AB02249016059210024C0E901144FF47E
:102DB000FA61C0E90314FFF7FAFA08B1FDF72FFF33
:102DC000079407A91A480894FFF7FFF808B1FDF720
:102DD00026FF602000904FF47A70CDE901040022B4
:102DE000694613480494FFF77AFA08B1FDF717FF14
:102DF000042269460E48FFF772FA08B1FDF70FFF8B
:102E0000082269460A480194FFF769FA08B1FDF7FC
:102E100006FF0C2269460648FFF761FA08B1FDF784
:102E2000FEFE0348FFF7D6F90AB010BD000C0040C3
:102E30007C03002010B52B4890B029490024C0E93C
:102E400000148460C46004614461FFF7B0FA08B103
:102E5000FDF7E5FE0E940EA922480F94FFF7B5F892
:102E600008B1FDF7DCFE0794089409944FF4005074
:102E70000A94CDE90B4007A91A480D94FFF784F88E
:102E800008B1FDF7CCFE6020CDE900040294039464
:102E9000049405940022694612480694FFF71FFA2D
:102EA00008B1FDF7BCFE042269460E48FFF717FA89
:102EB00008B1FDF7B4FE082269460A48FFF70FFA89
:102EC00008B1FDF7ACFE0C2269460648FFF707FA89
:102ED00008B1FDF7A4FE0348FFF77CF910B010BD60
:102EE00000040140B80300200D4810B50B490160F3
:102EF0000C49416000214FF480628160C0E90312F7
:102F00000C22C0E90521C161FFF750FB002803D066
:102F1000BDE81040FDF783BE10BD00000010014069
:102F200030040020A08601000C4810B50A49016059
:102F30004FF4E1314160002181600C22C160C0E9A1
:102F400004128161C161FFF731FB002803D0BDE8A5
:102F50001040FDF764BE10BD004400407004002026
:102F60000C4810B50A4901604FF4E131416000217D
:102F700081600C22C160C0E904128161C161FFF768
:102F800015FB002803D0BDE81040FDF748BE10BD7A
:102F900000480040B00400200C4810B50A49016008
:102FA0004FF4E1314160002181600C22C160C0E931
:102FB00004128161C161FFF7F9FA002803D0BDE86E
:102FC0001040FDF72CBE10BD00140140F00400209D
:102FD000FEE770470907090E002806DA00F00F0027
:102FE00000F1E02080F8141D704700F1E02080F827
:102FF0000014704738B50B46009204460022802129
:1030000000F008F8002804D0606D40F020006065F2
:10301000032038BD2DE9F0411D4617460E460446F3
:10302000DDF8188035E0681C33D02DB1FEF766FA64
:10303000A0EB0800A8422CD32068416821F0E001F1
:1030400041606068B0F5827F0BD1A068B0F5004F99
:1030500002D0B0F5806F04D12068016821F04001F2
:103060000160A06AB0F5005F0AD1206801684DF6E2
:10307000FF72114001602068016841F40051016055
:10308000012084F85100002084F850000320BDE89E
:10309000F0812068806836EA000004D00020B84241
:1030A000C1D10020F3E70120F9E702F0C5BC000020
:1030B00030B5264893B00025016841F08051016089
:1030C000006800F0805011902148016841F44041AF
:1030D00001600068022400F440401190012000903B
:1030E00001908005CDE9064006200890B420CDE986
:1030F000090404200B906846FEF760FC00B1FEE76F
:10310000FEF7C8FA00B1FEE70CA90F2081E83100F4
:103110004FF4A0500F904FF48050109005210CA850
:10312000FEF7FEFA00B1FEE7FEF7D8FB4FF47A7126
:10313000B0FBF1F0FEF712FF0420FEF703FF0022C0
:103140000F21501EFEF774FA13B030BD4038024014
:10315000007000401048016841F4700101600F48A0
:10316000016841F0010101600C4A00210832116040
:1031700002680B4B1A400260031D0A4A1A6002687B
:1031800022F48022026005480C3001600249580692
:10319000803908607047000088ED00E00038024088
:1031A000FFFFF6FE103000240148FEF75FBF00006D
:1031B000F0060020F0B50268234B244D244E254F25
:1031C000254C4FF0804C984209D0604507D0A8426A
:1031D00005D0B04203D0B84201D0A04204D122F0C1
:1031E000700E4A6842EA0E0298421BD0604519D020
:1031F000A84217D0B04215D0B84213D0A04211D087
:10320000164DA8420ED0164DA8420BD0154DA8421F
:1032100008D0154DA84205D0144DA84202D0144D37
:10322000A84203D122F44075CA682A4302608A6822
:10323000C2620A688262984201D0A04201D1096943
:10324000016301214161F0BD000001400004004024
:1032500000080040000C0040000401400040014014
:10326000004401400048014000180040001C00409C
:103270000020004030B5026A22F001020262026AB8
:10328000436884690D6824F07304254322F0020426
:103290008A6822430B4CA04202D00B4CA0420BD1B7
:1032A00022F00804CA6823F4407322434C6922F0D8
:1032B00004021C438B692343436085614968416371
:1032C000026230BD000001400004014030B5026AD6
:1032D00022F010020262026A436884690D6824F4D5
:1032E000E64444EA05248D6822F0200242EA0512F1
:1032F0000D4DA84202D00D4DA8420ED1CD6822F04E
:10330000800242EA05124D6923F4406343EA8503D3
:103310008D6922F0400243EA850343608461496875
:103320008163026230BD00000000014000040140E2
:1033300030B5026A22F480720262036A4268C4698C
:1033400023F4007324F073050C682C438D6843EA62
:1033500005230D4DA84202D00C4DA8420ED1CD68D8
:1033600023F4006343EA05234D6922F4405242EA04
:1033700005128D6923F4806342EA05124260C4613C
:103380004968C163036230BD000001400004014090
:1033900030B5026A22F480520262046A4268C3694C
:1033A0000D6823F4E64343EA05238D6824F40054B2
:1033B00044EA0534084DA84202D0084DA84204D181
:1033C0004D6922F4804242EA85124260C361496835
:1033D0000164046230BD00000000014000040140AF
:1033E00010B5806B0021C185C184FFF756F810BD70
:1033F0000168CA6822F49072CA6001684A6922F0C2
:1034000001024A61202180F83A10704710B590F807
:103410003A10222901D0022010BD8168B1F5805FE9
:1034200011D00169002901681FD0496801F07F03AC
:10343000816A4A1C82620B70C18D491E0904090C05
:10344000C18518D026E00269816A002A02685268A4
:1034500005D0D2B20A80816A491C8162ECE7C2F3CE
:1034600008020A80816A891CF7E74A68816A4B1C56
:1034700083620A70E0E70168CA6822F49072CA6049
:1034800001684A6922F001024A61202180F83A105D
:10349000FFF7E4F9002010BD2DE9F0410446006873
:1034A000016921F44052E168114301612168C86853
:1034B00049F20C6290432369A268E5691A43636983
:1034C0002B431A430243CA602168486920F44072C2
:1034D000A06910434861E1696425B1F5004F974840
:1034E000974A21684FF032083FD0914201D0814283
:1034F0007CD1FEF711FA00EBC00101EB001061680E
:103500008900B0FBF1F6FEF707FA00EBC00101EB12
:10351000001061688900B0FBF1F0B0FBF5F06FF0CE
:103520001801484306EB800108EB0110B0FBF5F0F1
:1035300000F0F006FEF7F0F900EBC00101EB00101F
:1035400061688900B0FBF1F0B0FBF5F006EB001606
:10355000FEF7E2F900EBC00101EB001061688900A1
:10356000B0FBF1F7FEF7D8F9D2E0914201D08142E9
:103570003DD1FEF7D1F900EBC00101EB001061680D
:103580004900B0FBF1F0B0FBF5F00601FEF7C4F91D
:1035900000EBC00101EB001061684900B0FBF1F7DE
:1035A000FEF7BAF900EBC00101EB001061684900B9
:1035B000B0FBF1F0B0FBF5F06FF01801484307EBFA
:1035C000800108EBC100B0FBF5F000F0F80006EB5D
:1035D0004006FEF7A1F900EBC00101EB00106168A5
:1035E0004900B0FBF1F7FEF797F93CE055E0FEF734
:1035F0007BF900EBC00101EB001061684900B0FBF2
:10360000F1F0B0FBF5F00601FEF76EF900EBC0013A
:1036100001EB001061684900B0FBF1F7FEF764F9B7
:1036200000EBC00101EB001061684900B0FBF1F054
:10363000B0FBF5F06FF01801484307EB800108EB91
:10364000C100B0FBF5F000F0F80006EB4006FEF715
:103650004BF900EBC00101EB001061684900B0FBC1
:10366000F1F7FEF741F900EBC00101EB00106168D2
:103670004900B0FBF1F0B0FBF5F06FF018014843E2
:1036800007EB800108EBC100B0FBF5F000F007008C
:10369000216830448860BDE8F081FEF725F900EB31
:1036A000C00101EB001061688900B0FBF1F6FEF784
:1036B0001BF900EBC00101EB001061688900B0FB51
:1036C000F1F0B0FBF5F06FF01801484306EB800114
:1036D00008EB0110B0FBF5F000F0F006FEF704F97E
:1036E00000EBC00101EB001061688900B0FBF1F054
:1036F000B0FBF5F006EB0016FEF7F6F800EBC001A4
:1037000001EB001061688900B0FBF1F7FEF7ECF8FF
:1037100000EBC00101EB001061688900B0FBF1F023
:10372000B0FBF5F06FF01801484307EB800108EBA0
:103730000110B0FBF5F000F00F00A9E70014014004
:103740000010014090F83910212901D00220704763
:103750008168B1F5805F016A0BD04A1C0262026881
:1037600009785160C18C491E0904090CC1840ED02E
:1037700017E009880268C1F3080151600169002956
:10378000016A02D0491C0162ECE7891CFBE7016871
:10379000CA6822F08002CA600068C16841F0400136
:1037A000C160002070472DE9F041984617460E464B
:1037B0000446069D1DE0681C1BD02DB1FDF79EFE42
:1037C000A0EB0800A84214D92068C16821F4D07188
:1037D000C1602068416921F001014161202084F825
:1037E000390084F83A00002084F838000320BDE84E
:1037F000F0812068006836EA000004D00020B8425A
:10380000D9D00020F3E70120F9E700000148FEF7D6
:1038100045BE0000300400200148FEF73FBE000016
:10382000700400200148FEF739BE0000B0040020FB
:103830000148FEF733BE0000F0040020FEE7000060
:103840000FB4084B10B504A902AA039800F0F8FDC4
:10385000044602A9002001F08AF9204610BC5DF858
:1038600014FB00006F4B000803B40198410000985E
:1038700050EAC12018BF04204A0D18BF40F00100D3
:1038800040F2FF72B2EB515F08BF40F00200012826
:1038900008BF052002B0704770B5C1482DED020B7E
:1038A0002DED0E8B82B0119D25F000449FEDBEDB07
:1038B0009FEDBFEB84423EDBA4F140511098A1F193
:1038C0007F6108430FD0BC48844202DC28D11098A5
:1038D00030B39DED100B02B0BDEC0E8B02B0BDE815
:1038E000704000F0B0BC9DED100B53EC1D2B51EC63
:1038F000100BFCF7F9FC9DED100B41EC180B53EC91
:103900001E2B51EC100BFCF7EFFC53EC182BFCF7C3
:1039100090FE41EC100B02B0BDEC0E8B02B070BDFE
:10392000012000F0D5FC02B0BDEC0E8B02B0BDE86A
:10393000704000F09DBCA1489FEDA18B844256DAF7
:103940009DED100BB4F1795F0ADA51EC100BFFF723
:103950008BFF042808BF00F09BFC9DED100BDAE7FD
:1039600053EC102B51EC100BFCF7BEFC41EC190B87
:1039700095480621B0EE490AF0EE690A784400F055
:10398000E6FB53EC192B51EC100BFCF7ADFC41ECB2
:103990001A0B8E48B0EE490AF0EE690A0421784409
:1039A00000F0D5FB53EC192B51EC100BFCF79CFCF1
:1039B00053EC182BFCF73DFE41EC100B51EC1A0BAD
:1039C00053EC102BFCF7DCFECDE900019DED000B64
:1039D00053EC102B9DED100B51EC100BFCF784FCFD
:1039E0009DED101B53EC112BFCF723FED2E09DED57
:1039F000100B51EC100B01F0C7F853EC182BFCF72F
:103A0000BCFE9FED730BCDE9000153EC102B9DED37
:103A1000000B51EC100BFCF767FC41EC190B6E48E6
:103A20000621B0EE490AF0EE690A784400F08FFBF7
:103A300053EC192B51EC100BFCF756FC41EC1B0B13
:103A40006648B0EE490AF0EE690A0421784400F0B5
:103A50007EFB53EC192B51EC100BFCF745FC53EC9F
:103A6000182BFCF7E6FD41EC1C0B51EC190B01F097
:103A7000FDFF41EC180B5A489FED5BABA04222DCE6
:103A800053EC1C2B51EC1B0BFCF77AFECDE900012B
:103A90009DED000B51EC180B53EC102BFCF724FCA4
:103AA00053EC182BFCF7C5FD53EC1A2BFCF71CFC50
:103AB00053EC1D2BFCF75EFE53EC1E2BFCF75DFE5A
:103AC00041EC100B5FE08DED008B002000909DED30
:103AD000000B51EC180B53EC102BFCF7AAFD9DEDDD
:103AE000000B41EC1E0B53EC102B51EC100BFCF7B0
:103AF000FBFB53EC192BFCF740FE53EC1E2BFCF7A1
:103B00003FFE41EC190B53EC1C2B51EC1B0BFCF74B
:103B100037FE41EC1B0B53EC1A2B51EC190BFCF745
:103B2000E3FB53EC1D2BFCF728FE41EC190B53EC87
:103B30001A2B51EC180BFCF7D7FB53EC1B2BFCF7A3
:103B4000D3FB53EC192BFCF715FE9DED000B41EC5C
:103B5000180B53EC1A2B51EC100BFCF7C5FB9FED27
:103B6000249B53EC192BFCF708FE41EC100B51EC95
:103B7000180B53EC102BFCF7FDFD53EC192BFCF745
:103B8000FCFD41EC100B002D3FF7C5AE51EC100BC6
:103B900081F0004141EC100BBDE600000000000088
:103BA0000000F03F00000000075C143326A6913CA3
:103BB000182D4454FB21F93F0000F07F0000E03F46
:103BC000000000000000F03F382300004623000002
:103BD000000000000000E03F8A2200009822000060
:103BE0003333EF3F00000000000000000000004001
:103BF000182D4454FB21E93F70B59B482DED020B75
:103C00002DED068B079D25F00044A04218DC974857
:103C1000844202DC0AD1069840B19DED060BBDEC52
:103C2000068B02B0BDE8704000F00DBB002DCCBF8C
:103C30009FED8F0B9FED900BBDEC068B02B070BD1E
:103C40008F48A04215DD8F48A042D8BF4FF0FF3407
:103C500058DD9DED060B51EC100BFFF705FE042817
:103C600008BF00F015FB9DED060BBDEC068B02B006
:103C700070BD9DED060B51EC100B00F085FFCDE9FA
:103C8000060181489FED828BA0423CDD8248A04224
:103C90001FDD00249FED82AB9DED060B53EC1A2B2C
:103CA00051EC100BFCF7C5FC9DED060B41EC190B1C
:103CB00053EC1A2B51EC100BFCF716FB53EC182BA2
:103CC000FCF758FD53EC192BFCF75AFDCDE9060122
:103CD00049E09DED060B012453EC182B51EC100B21
:103CE000FCF7A7FC9DED060B41EC190B53EC182BD0
:103CF00051EC100BFCF73EFD53EC192BFCF740FD8B
:103D0000CDE906012FE06848A0421FDD02249FEDA7
:103D1000689B9DED060B53EC192B51EC100BFCF737
:103D2000E3FA53EC182BFCF784FC9DED060B41ECF9
:103D3000180B53EC192B51EC100BFCF71BFD53EC3B
:103D4000182BFCF71DFDCDE906010CE09DED060BDF
:103D5000032453EC102B9FED580B51EC100BFCF788
:103D60000FFDCDE906019DED060B53EC102B51EC38
:103D7000100BFCF7B9FA41EC180B53EC182BFCF7BD
:103D8000B3FA41EC190B4E480621B0EE490AF0EEA9
:103D9000690A784400F0DBF953EC182B51EC100B56
:103DA000FCF7A2FA41EC180B4648B0EE490AF0EED7
:103DB000690A0521784400F0CAF953EC192B51EC3B
:103DC000100BFCF791FA41EC100B51EC180B53EC73
:103DD000102B002C0EDAFCF72CFC9DED061B53EC8F
:103DE000112BFCF781FA9DED061B53EC112BFCF710
:103DF000C4FC35E0FCF71DFC9DED061B53EC112BBC
:103E0000FCF772FA41EC100B2F48784400EBC40029
:103E100090ED001B51EC100B53EC112BFCF7AAFC9E
:103E20009DED061B53EC112BFCF7A4FC41EC100B91
:103E30002648784400EBC40090ED001B51EC100BB9
:103E400053EC112BFCF799FC41EC100B002DA2BF99
:103E5000BDEC068B02B070BD51EC100B81F000413F
:103E600041EC100B01E70000000010440000F07F5F
:103E7000182D4454FB21F93F182D4454FB21F9BF60
:103E80000000DC3F0000203E0000F33F0000000087
:103E9000000000000000F03F0000E63F00000000CE
:103EA000000000000000004000800340000000000F
:103EB000000000000000F83F000000000000F0BF1C
:103EC000DA1F0000901F00001A1F0000D21E000021
:103ED00070B56B4E2DED040B2DED028B82B0DDF82D
:103EE0001CC0DDE905235C422CF000411C4341EA83
:103EF000D474049D22F00040B44205D86C422C4397
:103F000040EAD474B4420BD99DED061B9DED040B21
:103F100002B0BDEC028B04B0BDE8704000F09DB96A
:103F2000ACF14054A4F17F641C430BD0022404EA9A
:103F3000AC7444EAD27405439FED538B9FED542B30
:103F400007D015E09DED040B51EC100B00F014FEB2
:103F500042E0002C11BF012C9DED040B02B0BDEC22
:103F6000028B04BF04B070BD022C38D0032C3BD0B0
:103F70000B439FED491B9FED4A0B0AD0B14218D16C
:103F8000B04209D121F0804120F080400791059096
:103F90000FE0002A15DA10E0434B7B44002C08BFE9
:103FA00093ED000B0DD0012C10D0022C17D0032C58
:103FB0001AD0B0421DD1002A03DAB0EE410AF0EE69
:103FC000610A02B0BDEC028B04B070BD93ED000B32
:103FD00051EC100B81F0004141EC100BF1E7B0EE19
:103FE000480AF0EE680AECE7B0EE420AF0EE620A28
:103FF000E7E7401A00153C28C8BF8DED000B19DC1F
:10400000BCF1000FBEBF10F13C0F9FED290B8DEDF1
:10401000000B0FDB9DED060B53EC102B9DED040BFD
:1040200051EC100BFCF7ACFB00F0AEFD00F0A4FD72
:10403000CDE90001002C08BF9DED000BC1D0012C83
:1040400010D0022C9FED1C0B53EC102B9DED000BA0
:1040500051EC100B0DD0FCF78DFB53EC182BFCF73B
:1040600089FBB9E7019880F0004001909DED000BBD
:10407000A7E7FCF77FFB53EC182BFCF77EFBABE7C5
:104080000000F07F00000000182D4454FB2109407F
:10409000182D4454FB2109C0182D4454FB21F9BFAD
:1040A000182D4454FB21F93F021E000000000000BF
:1040B0000000000000000000075C143326A6A13CAD
:1040C0002DED020B019820F0004001909DED000BBA
:1040D00002B0704700B52DED048BB0EE409AF0EEC3
:1040E000609A83B051EC190BFCF7B9FB41EC180B4B
:1040F00018EE100A18EE901A8DED008B002818BFEC
:104100000120084320F00040C0F17F6000F1E04052
:10411000C00F14D019EE101A19EE900A8DED009B05
:10412000002918BF0121084320F00040C0F17F6042
:1041300000F1E040C00F04BF012000F0C9F8B0EE6C
:10414000480A03B0F0EE680ABDEC048B00BD70B500
:1041500004462DED028B4D1E00EBC500B0EE408AEB
:10416000F0EE608A90ED000B35F0060017D053ECAE
:10417000182B51EC100BFCF7B7F841EC100B6D1E2F
:1041800004EBC50090ED001B51EC100B53EC112B10
:10419000FCF74FFA41EC100B35F00600E7D1022D89
:1041A00036D0042D1CD0062D1CBFBDEC028B70BD7B
:1041B00053EC182B51EC100BFCF796F894ED0A1BFE
:1041C00053EC112BFCF735FA53EC182BFCF78CF859
:1041D00094ED081B53EC112BFCF72BFA41EC100B60
:1041E00053EC182B51EC100BFCF77EF894ED061BEA
:1041F00053EC112BFCF71DFA53EC182BFCF774F859
:1042000094ED040B53EC102BFCF713FA41EC100B5C
:1042100053EC182B51EC100BFCF766F894ED021BD5
:1042200053EC112BFCF705FA53EC182BFCF75CF858
:1042300094ED001B53EC112BFCF7FBF9BDEC028B4A
:1042400041EC100B70BD10B553EC102B51EC100B62
:10425000FCF7EFF941EC100B10BD10B553EC112B2E
:1042600051EC100BFCF7E5F941EC100B10BD000010
:104270009FED050B10B553EC102B51EC100BFCF718
:104280007FFA41EC100B10BD0000000000000000A0
:104290009FED050B10B553EC102B51EC100BFCF7F8
:1042A00023F841EC100B10BD0000000000000010CE
:1042B00002E008C8121F08C1002AFAD170477047EF
:1042C000002001E001C1121F002AFBD1704700004D
:1042D0000149086070470000A80000202DE9FF5F39
:1042E000DDE90220010DDDF838B0024318D044F6B4
:1042F0001050A1F2FF3141430D140F98012820D036
:10430000A5EB0B00401C5FEA000A4FF00004474E8B
:10431000DFF81C91A046504616D5CAF1000728E0E8
:104320000F98012443A2012808D0002100980F9B78
:10433000C0E90021C0E90243BDE8FF9F6FEA0B011D
:10434000F4E7CBF10000DEE7074612E0F80707D0FC
:104350002246334640464946FBF7C6FF804689461B
:104360002246334610461946FBF7BEFF04460E466A
:104370007F10002FEAD1DDE90201BAF1000F4246B9
:104380004B4602DAFBF7B0FF01E0FCF7F9F904460F
:104390000E460022284BFCF73DF803D84FF0FF30C3
:1043A000014607E00022254B20463146FCF741F943
:1043B000FCF7A6FA102409E0002C0ADB0A220023ED
:1043C000FCF772F8019B30321A55641E50EA010264
:1043D000F2D1641C019AC4F1110314440F9A012A0A
:1043E00003D0012208430DD10AE0084304D0002085
:1043F0004FF0110B0F9080E7A3EB0B056D1E0DE046
:104400005B4504DD4FF0000205F1010504E003DA2D
:104410004FF00002A5F10105002AECD000980F9999
:10442000C0E90231C0E9004586E7000000002440F1
:104430000000F03F300000000000F0430000E03FCB
:104440002DE9FF4F95B09B468946064600250FE2B1
:10445000252877D100242746F84A0121059400E059
:10446000044316F8013F203B01FA03F01042F7D154
:1044700030782A2811D06FF02F033078A0F1300265
:10448000092A16D8059A44F0020402EB820203EBD3
:1044900042021044761C0590EFE759F8042B059270
:1044A000002A03DA504244F40054059044F0020418
:1044B000761C30782E2816D116F8010F44F004042B
:1044C0002A280DD06FF02F023078A0F13003092B8D
:1044D00009D807EB870302EB4303C718761CF3E701
:1044E00059F8047B761C30786C280FD006DC4C28F9
:1044F00017D068280DD06A2814D104E0742810D091
:104500007A280FD10DE044F400140AE044F480143A
:1045100001E044F440147278824202D104F5801420
:10452000761C761C307866280BD013DC582877D0A0
:1045300009DC002875D04528F6D04628F4D0472855
:104540001AD19DE118E0632835D0642879D0652818
:1045500012D195E1702873D008DC6728F1D0692862
:104560006FD06E280DD06F2806D1B5E073282CD0FF
:10457000752875D0782874D05A46179990476D1CC5
:1045800075E1C4F30250022809D003280DD0D9F8F0
:10459000001004280DD00D6009F1040967E1D9F875
:1045A0000010EA17C1E90052F6E7D9F800100D80B3
:1045B000F2E70D70F0E719F8041B8DF800100020E9
:1045C0008DF80100EA46012003E059F804AB4FF0F2
:1045D000FF3061074FF0000102D40DE008F1010146
:1045E0008846B9420FDA8045F8DB1AF8081000292E
:1045F000F4D108E008F1010188468142FADB1AF89B
:1046000008100029F6D105985B46A0EB0807214663
:104610003846179A00F094FA284400EB080507E0A2
:104620004DE029E10DE01AF8010B5A461799904721
:10463000B8F10108F7D25B4621463846179A13E1D4
:1046400042E00A220092C4F302524FF0000A022A0A
:1046500008D059F804CB032A4FEAEC710AD00DE0D8
:1046600029E02AE009F1070121F00702F2E802C17E
:10467000914609E00FFA8CFC4FEAEC71042A03D151
:104680004FFA8CFC4FEAEC71002907DA0A46002148
:10469000DCF1000C61EB02012D2202E0220504D5C1
:1046A0002B228DF80420012203E0E20701D0202212
:1046B000F7E7904659E00A2102E010220DE01021B0
:1046C0004FF0000A00910BE010224FF0000A44F076
:1046D00004040827009203E008224FF0000A009229
:1046E000C4F30252022A05D059F804CB0021032A50
:1046F00008D009E009F1070121F00702F2E802C140
:10470000914605E01FFA8CFC042A01D10CF0FF0C45
:104710004FF00008220728D5702806D0009B83F0B0
:10472000100353EA0A0305D00EE040228DF804205E
:10473000012208E05CEA010206D030228DF8042054
:104740008DF8050002229046009B83F0080353EA8F
:104750000A030AD15CEA010201D1620705D53022C1
:104760008DF804204FF001087F1E582804D034A093
:1047700003900EA802900DE036A0F9E7534660467C
:10478000009AFBF791FE84460398825C0298401ED3
:10479000029002705CEA0100F0D1029806A9081AA2
:1047A00000F1200A600702D524F4803400E00127DC
:1047B000574502DDA7EB0A0000E0002000EB0A01EC
:1047C000009005984144401A0590E00306D45B46EA
:1047D0002146179A059800F0B3F90544002706E032
:1047E00001A85A46C05D179990476D1C7F1C47452C
:1047F000F6DBE0030CD55B462146179A059800F0DE
:104800009FF9054404E030205A46179990476D1CE3
:104810000099481E00900029F5DC08E002980299F2
:104820005A460078491C0291179990476D1CBAF1BD
:104830000001AAF1010AF1DC65E10000092801008C
:104840003031323334353637383961626364656606
:1048500000000000303132333435363738394142C8
:10486000434445460000000000F058F90544761C1A
:10487000307800287FF4ECAD19B02846BDE8F08F01
:10488000620700D4062709F1070222F0070CFCE8B2
:104890000223E14603F000485FEA080C02D00FF261
:1048A000702C0DE05FEA045C02D50FF2682C07E083
:1048B0005FEAC47C02D00FF2602C01E0AFF2700C12
:1048C0004FF0FF3823F00043CDF850C065280CD0DE
:1048D00006DC452809D046281DD047283DD13DE0BB
:1048E000662818D067287ED138E00021112F01DB1F
:1048F000112000E0781CCDE9000106A90EA8FFF701
:10490000EDFCDDE90F010E9A03910021009207F101
:10491000010A04914DE04FF000400097CDE90110ED
:1049200006A90EA8FFF7DAFCDDE90F0203920E9B41
:1049300011990022DDF80CA00093049211B9791CA2
:1049400000EB010AB7EB0A0004D4C0F1FF3007F115
:10495000010A0490AAEB0700019044E0012F00DA5D
:1049600001270021112F01DD112000E03846CDE99B
:10497000000106A90EA8FFF7B1FCDDE90F010E9AB0
:104980000391002104910092BA4621070CD40399A7
:10499000514500DA8A46BAF1010F05DD009AAAF105
:1049A0000101515C302908D0B84202DA10F1040F3D
:1049B00006DA0121CDE9011015E0AAF10101E9E7CC
:1049C000002805DC049901440491AAEB000102E0EF
:1049D000411C514500DD8A460499401A401C019053
:1049E0004FF000400290200704D40198504501DBAD
:1049F000CDF8048000208DF84F0002980DF14F078C
:104A0000B0F1004F25D02B200E9002984FF00208F5
:104A100000280CDA404202902D200E9007E00A2177
:104A20000298FBF72BFD3031029007F8011DB8F119
:104A30000001A8F10108F2DC02980028EFD1791EEC
:104A40000E980870307800F0200040F0450007F81C
:104A5000020D12A8C01B00F107081498007800B1DD
:104A6000012000EB0A01019801EBE0710598414437
:104A7000401A401E0590E00306D45B462146179A73
:104A8000059800F05DF805441498007818B15A466E
:104A9000179990476D1CE00324D55B462146179A71
:104AA000059800F04DF805441CE00498002807DB49
:104AB000DDE90301884203DD0098405C179901E0BD
:104AC000179930205A469047049805F10105401C7B
:104AD00004900198401E019004D12E205A46179947
:104AE00090476D1CBAF10001AAF1010ADDDC05E076
:104AF00017F8010B5A46179990476D1CB8F1000141
:104B0000A8F10108F4DC5B462146179A0598ABE64C
:104B10002D0000002B000000200000002DE9F041D6
:104B2000044600251E461746880404D405E039468D
:104B30002020B0476D1C641EF9D52846BDE8F081E1
:104B40002DE9F041044600251E469046C80301D5D4
:104B5000302700E02027880404D505E04146384688
:104B6000B0476D1C641EF9D52846BDE8F0810A687F
:104B7000531C0B601070704710B541EC100BFFF721
:104B80003BF851EC100B10BD82B0CDE9000121F0D3
:104B9000004001909DED000B02B051EC100B7047EE
:104BA00030B5048944814A6B6FF00405928A52BA89
:104BB00002814B6BDB8A5BBA438003804B6B1B8BA0
:104BC0005BBA1BB293FBF5F38380496B131BB3F500
:104BD000805F897E8171016901DD491E03E013F563
:104BE000805F01DA491C016102EB41318289891A37
:104BF000416130BD496B898A49BA01818181704721
:104C000010B5FF4CFF482DED108B94ED010AD4ED4B
:104C1000010A20EE20FA94ED010AD4ED020A20EEFA
:104C200020CA94ED010AD4ED030A60EE20BA94ED97
:104C3000010AD4ED040A60EE20CA94ED020AD4ED14
:104C4000020A20EE20DA94ED020AD4ED030A20EEE7
:104C5000209A94ED020AD4ED040A20EE20BA94EDD5
:104C6000030AD4ED030A60EE20AA94ED030AD4ED02
:104C7000040A20EE20AA94ED040AD4ED040A60EEA2
:104C8000209A90ED040A84ED080A90ED050A84ED5F
:104C9000090A90ED060A84ED0A0AB0F9001000EE48
:104CA000101AB8EEC00A84ED0B0AB0F9021000EE3B
:104CB000101AB8EEC00A84ED0C0AB0F9041000EE28
:104CC000101AB8EEC00A84ED0D0AB0F9061000EE15
:104CD000101AB8EEC00A84ED0E0AB0F9081000EE02
:104CE000101AB8EEC00A84ED0F0AB0F90A0000EEFF
:104CF000100AB8EEC00A84ED100AFCF7FFFBA064AE
:104D0000A06C616C401A00EE100AB8EE400ADFEDAC
:104D1000BE0AA06CC0EE208A606494ED0B0AD4ED4C
:104D20000B0A94ED0C1A20EE200AD4ED0C0A00EECA
:104D3000810AD4ED0D0A94ED0D1A00EE810A00F0FF
:104D400055FBD4ED0B0A60EE800AC4ED0B0AD4EDDE
:104D50000C0A60EE800AC4ED0C0AD4ED0D0A20EEB8
:104D6000800A84ED0D0A94ED0E0AD4ED0E0A94ED3E
:104D70000F1A20EE200AD4ED0F0A00EE810AD4EDBE
:104D8000100A94ED101A00EE810A00F02FFBD4ED0A
:104D90000E0AB6EE001AB0EE008A60EE800A39EE16
:104DA0006CEA7BEE2B1AC4ED0E0AD4ED0F0A60EE0E
:104DB000800AC4ED0F0AD4ED100A20EE800A71EECD
:104DC0006A0A31EE4D1A84ED100A94ED0E0A70EE67
:104DD000E9EA31EE692A20EE080A71EE6ADA60EE3D
:104DE0002E0A94ED0F0A20EE080A40EE0E0A94ED0A
:104DF000100A20EE080A40EE210A94ED0E0A79EE20
:104E00002C1A7BEE6BCA20EE080A60EEA00A20EE98
:104E1000210AD4ED0F1A61EE881A01EE820AD4ED50
:104E2000101A3AEE4C2A61EE881A01EE820AD4ED8D
:104E30000E1A3AEE0C2A61EE881A40EE000A21EEB4
:104E4000AC9AD4ED0F1A10EE900A61EE881A01EEBA
:104E5000829AD4ED101A61EE881A01EEAD9AFBF732
:104E6000C6FA41EC100BFFF735F951EC100BFBF7CC
:104E7000E9FA00EE900A7CEE0A2A3FEE4D1A60EE47
:104E8000880A69EE083A22EE880A31EE6A1A60EE64
:104E90008E1A94ED104A2CEE882A31EE293A43EE10
:104EA000A21A7BEE8B2A20EEAE1A60EEA22AD4ED77
:104EB0000C0A03EEAC1A43EEAD2A60EE830AD4ED81
:104EC0000D3A43EEC00AD4ED0F3A63EEA23A44EE37
:104ED000613A94ED0B4A70EEA30AD4ED0D3A63EEFD
:104EE000823AF5EEC00A44EE433A94ED103A94ED5E
:104EF0000E4A23EE013A04EE623A73EE832A94EDF1
:104F00000B3A23EE000A94ED0C3A03EE420A94EDBC
:104F10000E2A62EE211A94ED0F2A42EE411A30EE6B
:104F2000210AF1EE10FA41D0F5EEC02AF1EE10FAA6
:104F30003CD0B5EEC00AF1EE10FA37D0D4ED051A28
:104F40009FED321A20EE812A42EE281A22EE812AA3
:104F5000C4ED051AD4ED061A42EE281AC4ED061A5D
:104F600060EE011A94ED071A01EEA81A84ED071AF3
:104F700094ED081A00EE881AD4ED050A71EE200AA5
:104F8000C4ED080AD4ED090A94ED061A42EE880A27
:104F900070EE810AC4ED090AD4ED0A0A40EE080A4F
:104FA00094ED070A30EE800A84ED0A0A94ED020AB5
:104FB000D4ED080A94ED091A94ED013A20EEC00AE6
:104FC000D4ED030A00EEC10AD4ED040A94ED0A1AE6
:104FD00000EEC10AD4ED080A94ED0A1A00EE283A50
:104FE00094ED010A20EE200AD4ED030A00EE810AB6
:104FF000D4ED040A94ED091A00EEC10A08E000009D
:1050000044000020040800200000FA440AD7233C92
:10501000D4ED021AD4ED090A94ED0A1A40EE281ACA
:1050200094ED010A94ED032AD4ED042A20EE200A1F
:10503000D4ED020A00EEC10AD4ED040A94ED081A78
:1050400000EE810AD4ED0A0A94ED091A00EE282A2E
:1050500094ED010A20EE200AD4ED020A00EE810A46
:10506000D4ED030A94ED081A00EEC10A40EE282A96
:1050700023EE030A01EEA10A02EE020A02EEA20AE0
:1050800000F0B4F963EE000AC4ED010A61EE800A93
:10509000C4ED020A62EE000A22EE800AC4ED030AA1
:1050A00084ED040ABDEC108B10BD000070B5564CA9
:1050B0002DED068BF8EE008AB0EE008AB7EE00AA5E
:1050C00094ED030AD4ED030A94ED041A20EE280AA5
:1050D00020EE200AD4ED040A60EE880A00EEC10A30
:1050E00030EE0A0A10EE100AFBF781F994ED020A7D
:1050F000D4ED030A94ED041A20EE080A41EC190BD2
:1051000020EE200AD4ED010A60EE880A00EE810A42
:1051100010EE100AFBF76BF941EC100BB0EE491AD8
:10512000F0EE691AFEF7D4FE9FED389B51EC100BA0
:1051300053EC192BFBF7D8F8FBF784F9354D2863AE
:1051400094ED020AD4ED040A94ED031A20EE280A25
:1051500020EE200AD4ED010A60EE880A00EE810AF2
:1051600010EE100AFBF743F941EC100BFEF794FB2D
:1051700053EC192B51EC100BFBF7B6F8FBF762F967
:10518000E86294ED020AD4ED020A94ED031A20EECF
:10519000280A20EE200AD4ED030A60EE880A00EE09
:1051A000C10A30EE0A0A10EE100AFBF720F994ED5E
:1051B000030AD4ED040A94ED021A20EE080A41EC29
:1051C000190B20EE200AD4ED010A60EE880A00EEE9
:1051D000810A10EE100AFBF70AF941EC100BB0EE51
:1051E000491AF0EE691AFEF773FE9FED0B1B51ECA6
:1051F000100B53EC112BFBF777F8FBF723F9A862A0
:10520000BDEC068B70BD000044000020666666663B
:1052100066A64CC0040800206666666666A64C401A
:1052200010B559482DED0A8BB0F90610B0F90800F9
:105230009FED569BDFED57BA574C9FED588A9FED77
:1052400058BADFED58AA9FED58AADFED588A002919
:105250004EDA9FED57CA00282ADA91FBF0F0FBF7EF
:10526000B5F841EC100BFEF72BFF53EC192B51EC6A
:10527000100BFBF7CFF80AD8C4ED01BA84ED028A0F
:105280009FED4C0A84ED030A9FED4B0A0BE09FED66
:105290004B0A84ED010A9FED4A0A84ED020A84ED6F
:1052A00003BA9FED480A84ED040ABDEC0A8B10BDD9
:1052B000FBDD91FBF0F0FBF789F841EC100BFEF7FA
:1052C000FFFE53EC192B51EC100BFBF7A3F884ED08
:1052D00001CA06D884ED028AC4ED03AA9FED3A0AFA
:1052E000E1E784ED02AAC4ED038A9FED380ADAE70C
:1052F000DBDD00289FED36CA22DD91FBF0F0FBF7E5
:1053000065F841EC100BFEF7DBFE53EC192B51EC6A
:10531000100BFBF77FF80AD89FED2E0A84ED010AE7
:10532000C4ED02AA84ED038AC4ED04BABDE79FED83
:105330002A0A84ED010AC4ED028A84ED03AAB2E7C9
:10534000B3DA91FBF0F0FBF741F841EC100BFEF7FC
:10535000B7FE53EC192B51EC100BFBF75BF884ED07
:1053600001CA08D89FED1D0A84ED020A84ED038A64
:105370009FED1B0A97E79FED1B0A84ED02BA84EDAF
:10538000030A9FED190A8EE70408002000000000C0
:105390000000F03F0AD7A3BB44000020A8C64BBEC4
:1053A000E17A543F355E7ABF68910DBFE17A54BF10
:1053B0000AD7A33BBE9F7A3F4ED111BC6F1203BCEC
:1053C0007B140EBF6F1203BBA69B443C99BB16BB5C
:1053D0000AD7233B52499D3A99BB163B355E7A3F2B
:1053E0006F12033C295C0FBFBC74933B10EE100A94
:1053F000F6EE000A074960EE200AA1EB600000EE1D
:10540000100A20EE801AF7EE080A41EE400A20EE5C
:10541000800A7047DF59375F06220146492000F0B5
:10542000A9BA10B530216A2000F0DCFA0A20FBF797
:105430006DFF0D21242000F0D5FA0A20FBF766FF4E
:105440000E21282000F0CEFA0A20FBF75FFF8E2104
:10545000312000F0C7FA0A20FBF758FF01210B208A
:1054600000F07BF80A20FBF751FF002000F059F80C
:10547000102801D0012010BD01210B2000F06DF893
:105480000A20FBF743FF00210A2000F066F80A20FB
:1054900000F047F808B1022010BD0A20FBF736FFE4
:1054A00000210B2000F059F80B2000F03AF808B169
:1054B000032010BD0A20FBF729FF2421412000F022
:1054C0004CF8412000F02DF8242801D0042010BD14
:1054D0000A20FBF71BFFC021422000F03EF84220CB
:1054E00000F01FF8C02801D0052010BD0A20FBF7EE
:1054F0000DFF00212A2000F075FA0A20FBF706FFB5
:105500000021342000F06EFA0A20FBF7FFFE06228D
:1055100003210E2000F06CF96420FBF7F7FE002059
:1055200010BD10B50146322000F05CFA0A20FBF7EE
:10553000EDFE8021342000F055FA0A20FBF7E6FE4C
:10554000352000F0EFF904460021342000F04AFA3B
:105550000A20FBF7DBFE204610BD70B50D46044661
:1055600000212A2000F03EFA0220FBF7CFFE214660
:10557000292000F037FA0220FBF7C8FE29466420F4
:1055800000F030FA0220FBF7C1FE81212A2000F052
:1055900029FABDE870400A20FBF7B8BE1FB5FBF73B
:1055A000BBFFFDF785FDFDF735FAFDF7FDF9FDF7CA
:1055B000B5F9FDF799FCFDF7D7FAFDF7D1FCFDF73A
:1055C000EBFCFDF7CDF9FDF7E9FBFDF723FBFDF75C
:1055D00067FBFDF79DFBFDF72DFCFDF7E9FAFDF7F5
:1055E000A3FC00F053F8FFF71BFEDFF8648040F2E5
:1055F0002B1900BF00F07CF8FFF702FBFFF756FD08
:105600000520FBF783FED8F83000FAF7F0FE0646D7
:105610000F46D8F82C00FAF7EAFE04460D46D8F8F3
:105620002800FAF7E4FE41EC100B8DE8F00053EC93
:10563000102B08A11348FEF703F937234A461149F6
:105640001148FDF70CF90520FBF760FED2E70000DA
:105650000408002020526F6C6C3A2025382E336CE1
:10566000662020202050697463683A2025382E3344
:105670006C66202020205961773A2025382E336C23
:10568000660D0A009C010020F004002030B585B0B2
:105690006420FBF73BFE752000F044F9124900241A
:1056A0001422887011496846FAF7FAFD4FEA0D0591
:1056B00005EB4400417815F8140000F093F901203F
:1056C000FBF724FE641CE4B20A2CF1D3032000F0A3
:1056D00084F9022000F07CF9FFF7A3FE00F0D0F877
:1056E00005B0002030BD000044000020A05C000890
:1056F00010B50E2239493B2000F03CF9374800F143
:105700000E04018849BA2180418849BA61808188A4
:1057100049BAA180C18849BAA1810189628B49BA7D
:10572000891AE1814189A28B49BA891A218280892B
:10573000E18B40BA401A60822948FFF76DFE284984
:10574000A4F142004C399FED271ACA6C8264B1F86B
:105750005010A0F84C10D0F842100160D0F846105C
:105760004160D0F84A108160B4F90C0000EE100AD4
:10577000A4F14200F8EEC00A80EE810AF3EE050AB9
:1057800030EE200A80ED030AB4F90E1000EE101A74
:10579000F8EEC00A9FED140A80EE801ADFED130ABE
:1057A000C1EE201AC0ED041AB4F9101001EE101A5F
:1057B000F8EEC11A81EE801AC1EE201AC0ED051A6A
:1057C000B4F9121001EE101AF8EEC11A81EE801A27
:1057D00081EE200A80ED060A10BD00003808002086
:1057E000900000205CEFA6436F1283413333654283
:1057F00070B50E46044601461546282000F0F2F822
:105800000220FBF783FD0A21292000F0EBF802209B
:10581000FBF77CFD0121642000F0E4F80220FBF797
:1058200075FD44F08001252000F0DCF80220FBF734
:105830006DFD3146262000F0D5F80220FBF766FD0D
:105840000321342000F0CEF80220FBF75FFD032196
:10585000672000F0C7F80220FBF758FD81212A20BD
:1058600000F0C0F80620FBF751FD45F0800127202D
:1058700000F0B8F8BDE870400220FBF747BD00001B
:105880002DE9F041264E002706F10E044FF49675DF
:105890000E2223493B2000F06DF83188A08A49BAD6
:1058A0000844A0827188E08A49BA0844E082B1883D
:1058B000208B49BA084420833189608B49BA084457
:1058C00060837189A08B49BA0844A083B189E08BB9
:1058D00049BA0844E0830520FBF718FD7F1CAF425E
:1058E000D6DBB4F9140090FBF5F0A082B4F91600F1
:1058F00090FBF5F0E082B4F9180090FBF5F02083FE
:10590000B4F91A0090FBF5F000B2608390FBF5F05B
:10591000A083B4F91E0090FBF5F0E083BDE8F081B0
:1059200038080020F8B5104E0446002240213046C9
:10593000FBF7DEFD44F080000C4C3725621C207024
:105940000123511E0A480095FCF710FA621C01233E
:10595000511E07480095FCF709FA01224021304604
:10596000FBF7C6FD6078F8BD00140240440000203B
:105970002C070020F8B5134F15460E4604460022AA
:1059800040213846FBF7B4FD0F4944F0800037242E
:1059900008705231A1F151020870012352390B48AD
:1059A0000094FCF7E3F908492B4632465231074888
:1059B0000094FCF7DBF9012240213846FBF798FD03
:1059C0000020F8BD00140240440000202C070020F5
:1059D000C006010E1C2000F005B8C006010E1B20F9
:1059E000AFF30080F8B5114F0E4604460022402167
:1059F0003846FBF77DFD04F07F000D4C3725621C17
:105A000020700123511E0B480095FCF7AFF926705A
:105A1000621C0123511E07480095FCF7A7F90122DB
:105A200040213846FBF764FD0020F8BD0014024019
:105A3000440000202C07002010B500F0B1F8012828
:105A400003D0BDE8104000F095B810BD0648016BCA
:105A5000096829B1016BC968C968496881627047E2
:105A60004FF0FF31FAE700000800002000B52DEDEF
:105A7000048B83B041EC190BFAF7F1FE41EC180BE3
:105A800018EE100A18EE901A8DED008B002818BF42
:105A90000120084320F00040C0F17F6000F1E040A9
:105AA000C00F14D019EE101A19EE900A8DED009B5C
:105AB000002918BF0121084320F00040C0F17F6099
:105AC00000F1E040C00F04BF0120FEF701FC51ECE3
:105AD000180B03B0BDEC048B00BDD0E901320169A5
